{
  "contractName": "iToken",
  "abi": [
    {
      "inputs": [
        {
          "name": "name",
          "type": "string"
        },
        {
          "name": "symbol",
          "type": "string"
        },
        {
          "name": "decimals",
          "type": "uint8"
        },
        {
          "name": "initSupply",
          "type": "uint256"
        }
      ],
      "payable": false,
      "stateMutability": "nonpayable",
      "type": "constructor"
    },
    {
      "anonymous": false,
      "inputs": [
        {
          "indexed": true,
          "name": "from",
          "type": "address"
        },
        {
          "indexed": true,
          "name": "to",
          "type": "address"
        },
        {
          "indexed": false,
          "name": "value",
          "type": "uint256"
        }
      ],
      "name": "Transfer",
      "type": "event"
    },
    {
      "anonymous": false,
      "inputs": [
        {
          "indexed": true,
          "name": "owner",
          "type": "address"
        },
        {
          "indexed": true,
          "name": "spender",
          "type": "address"
        },
        {
          "indexed": false,
          "name": "value",
          "type": "uint256"
        }
      ],
      "name": "Approval",
      "type": "event"
    },
    {
      "constant": true,
      "inputs": [],
      "name": "tokenName",
      "outputs": [
        {
          "name": "",
          "type": "string"
        }
      ],
      "payable": false,
      "stateMutability": "view",
      "type": "function"
    },
    {
      "constant": true,
      "inputs": [],
      "name": "tokenSymbol",
      "outputs": [
        {
          "name": "",
          "type": "string"
        }
      ],
      "payable": false,
      "stateMutability": "view",
      "type": "function"
    },
    {
      "constant": true,
      "inputs": [],
      "name": "tokenDecimals",
      "outputs": [
        {
          "name": "",
          "type": "uint8"
        }
      ],
      "payable": false,
      "stateMutability": "view",
      "type": "function"
    },
    {
      "constant": true,
      "inputs": [],
      "name": "totalSupply",
      "outputs": [
        {
          "name": "",
          "type": "uint256"
        }
      ],
      "payable": false,
      "stateMutability": "view",
      "type": "function"
    },
    {
      "constant": true,
      "inputs": [
        {
          "name": "account",
          "type": "address"
        }
      ],
      "name": "balanceOf",
      "outputs": [
        {
          "name": "",
          "type": "uint256"
        }
      ],
      "payable": false,
      "stateMutability": "view",
      "type": "function"
    },
    {
      "constant": true,
      "inputs": [
        {
          "name": "owner",
          "type": "address"
        },
        {
          "name": "spender",
          "type": "address"
        }
      ],
      "name": "allowance",
      "outputs": [
        {
          "name": "",
          "type": "uint256"
        }
      ],
      "payable": false,
      "stateMutability": "view",
      "type": "function"
    },
    {
      "constant": false,
      "inputs": [
        {
          "name": "recipient",
          "type": "address"
        },
        {
          "name": "amount",
          "type": "uint256"
        }
      ],
      "name": "transfer",
      "outputs": [
        {
          "name": "success",
          "type": "bool"
        }
      ],
      "payable": false,
      "stateMutability": "nonpayable",
      "type": "function"
    },
    {
      "constant": false,
      "inputs": [
        {
          "name": "spender",
          "type": "address"
        },
        {
          "name": "value",
          "type": "uint256"
        }
      ],
      "name": "approve",
      "outputs": [
        {
          "name": "success",
          "type": "bool"
        }
      ],
      "payable": false,
      "stateMutability": "nonpayable",
      "type": "function"
    },
    {
      "constant": false,
      "inputs": [
        {
          "name": "owner",
          "type": "address"
        },
        {
          "name": "recipient",
          "type": "address"
        },
        {
          "name": "amount",
          "type": "uint256"
        }
      ],
      "name": "transferFrom",
      "outputs": [
        {
          "name": "success",
          "type": "bool"
        }
      ],
      "payable": false,
      "stateMutability": "nonpayable",
      "type": "function"
    }
  ],
  "bytecode": "0x608060405234801561001057600080fd5b50604051610e1b380380610e1b8339810180604052608081101561003357600080fd5b81019080805164010000000081111561004b57600080fd5b8281019050602081018481111561006157600080fd5b815185600182028301116401000000008211171561007e57600080fd5b5050929190602001805164010000000081111561009a57600080fd5b828101905060208101848111156100b057600080fd5b81518560018202830111640100000000821117156100cd57600080fd5b505092919060200180519060200190929190805190602001909291905050508360009080519060200190610102929190610189565b508260019080519060200190610119929190610189565b5081600260006101000a81548160ff021916908360ff16021790555080600460003373ffffffffffffffffffffffffffffffffffffffff1673ffffffffffffffffffffffffffffffffffffffff16815260200190815260200160002081905550806003819055505050505061022e565b828054600181600116156101000203166002900490600052602060002090601f016020900481019282601f106101ca57805160ff19168380011785556101f8565b828001600101855582156101f8579182015b828111156101f75782518255916020019190600101906101dc565b5b5090506102059190610209565b5090565b61022b91905b8082111561022757600081600090555060010161020f565b5090565b90565b610bde8061023d6000396000f3fe608060405234801561001057600080fd5b50600436106100935760003560e01c80636c02a931116100665780636c02a931146101c657806370a08231146102495780637b61c320146102a1578063a9059cbb14610324578063dd62ed3e1461038a57610093565b8063095ea7b31461009857806318160ddd146100fe57806323b872dd1461011c5780633b97e856146101a2575b600080fd5b6100e4600480360360408110156100ae57600080fd5b81019080803573ffffffffffffffffffffffffffffffffffffffff16906020019092919080359060200190929190505050610402565b604051808215151515815260200191505060405180910390f35b610106610419565b6040518082815260200191505060405180910390f35b6101886004803603606081101561013257600080fd5b81019080803573ffffffffffffffffffffffffffffffffffffffff169060200190929190803573ffffffffffffffffffffffffffffffffffffffff16906020019092919080359060200190929190505050610423565b604051808215151515815260200191505060405180910390f35b6101aa6105a3565b604051808260ff1660ff16815260200191505060405180910390f35b6101ce6105ba565b6040518080602001828103825283818151815260200191508051906020019080838360005b8381101561020e5780820151818401526020810190506101f3565b50505050905090810190601f16801561023b5780820380516001836020036101000a031916815260200191505b509250505060405180910390f35b61028b6004803603602081101561025f57600080fd5b81019080803573ffffffffffffffffffffffffffffffffffffffff16906020019092919050505061065c565b6040518082815260200191505060405180910390f35b6102a96106a5565b6040518080602001828103825283818151815260200191508051906020019080838360005b838110156102e95780820151818401526020810190506102ce565b50505050905090810190601f1680156103165780820380516001836020036101000a031916815260200191505b509250505060405180910390f35b6103706004803603604081101561033a57600080fd5b81019080803573ffffffffffffffffffffffffffffffffffffffff16906020019092919080359060200190929190505050610747565b604051808215151515815260200191505060405180910390f35b6103ec600480360360408110156103a057600080fd5b81019080803573ffffffffffffffffffffffffffffffffffffffff169060200190929190803573ffffffffffffffffffffffffffffffffffffffff16906020019092919050505061075e565b6040518082815260200191505060405180910390f35b600061040f3384846107e5565b6001905092915050565b6000600354905090565b600081600560008673ffffffffffffffffffffffffffffffffffffffff1673ffffffffffffffffffffffffffffffffffffffff16815260200190815260200160002060003373ffffffffffffffffffffffffffffffffffffffff1673ffffffffffffffffffffffffffffffffffffffff1681526020019081526020016000205411156104fa576040517f08c379a000000000000000000000000000000000000000000000000000000000815260040180806020018281038252603b815260200180610b78603b913960400191505060405180910390fd5b610505848484610968565b610598848484600560008973ffffffffffffffffffffffffffffffffffffffff1673ffffffffffffffffffffffffffffffffffffffff16815260200190815260200160002060003373ffffffffffffffffffffffffffffffffffffffff1673ffffffffffffffffffffffffffffffffffffffff1681526020019081526020016000206000828254039250508190556107e5565b600190509392505050565b6000600260009054906101000a900460ff16905090565b606060008054600181600116156101000203166002900480601f0160208091040260200160405190810160405280929190818152602001828054600181600116156101000203166002900480156106525780601f1061062757610100808354040283529160200191610652565b820191906000526020600020905b81548152906001019060200180831161063557829003601f168201915b5050505050905090565b6000600460008373ffffffffffffffffffffffffffffffffffffffff1673ffffffffffffffffffffffffffffffffffffffff168152602001908152602001600020549050919050565b606060018054600181600116156101000203166002900480601f01602080910402602001604051908101604052809291908181526020018280546001816001161561010002031660029004801561073d5780601f106107125761010080835404028352916020019161073d565b820191906000526020600020905b81548152906001019060200180831161072057829003601f168201915b5050505050905090565b6000610754338484610968565b6001905092915050565b6000600560008473ffffffffffffffffffffffffffffffffffffffff1673ffffffffffffffffffffffffffffffffffffffff16815260200190815260200160002060008373ffffffffffffffffffffffffffffffffffffffff1673ffffffffffffffffffffffffffffffffffffffff16815260200190815260200160002054905092915050565b80600460008573ffffffffffffffffffffffffffffffffffffffff1673ffffffffffffffffffffffffffffffffffffffff16815260200190815260200160002054101561087d576040517f08c379a0000000000000000000000000000000000000000000000000000000008152600401808060200182810382526039815260200180610b3f6039913960400191505060405180910390fd5b80600560008573ffffffffffffffffffffffffffffffffffffffff1673ffffffffffffffffffffffffffffffffffffffff16815260200190815260200160002060008473ffffffffffffffffffffffffffffffffffffffff1673ffffffffffffffffffffffffffffffffffffffff168152602001908152602001600020819055508173ffffffffffffffffffffffffffffffffffffffff168373ffffffffffffffffffffffffffffffffffffffff167f8c5be1e5ebec7d5bd14f71427d1e84f3dd0314c0f7b2291e5b200ac8c7c3b925836040518082815260200191505060405180910390a3505050565b80600460008573ffffffffffffffffffffffffffffffffffffffff1673ffffffffffffffffffffffffffffffffffffffff168152602001908152602001600020541015610a00576040517f08c379a000000000000000000000000000000000000000000000000000000000815260040180806020018281038252603a815260200180610b05603a913960400191505060405180910390fd5b80600460008573ffffffffffffffffffffffffffffffffffffffff1673ffffffffffffffffffffffffffffffffffffffff1681526020019081526020016000206000828254039250508190555080600460008473ffffffffffffffffffffffffffffffffffffffff1673ffffffffffffffffffffffffffffffffffffffff168152602001908152602001600020600082825401925050819055508173ffffffffffffffffffffffffffffffffffffffff168373ffffffffffffffffffffffffffffffffffffffff167fddf252ad1be2c89b69c2b068fc378daa952ba7f163c4a11628f55a4df523b3ef836040518082815260200191505060405180910390a350505056fe69546f6b656e3a20696e616465717561746520616d6f756e7420666f72207472616e736665722066726f6d2073656e646572206163636f756e7469546f6b656e3a20696e616465717561746520616d6f756e7420666f7220617070726f76616c2066726f6d206f776e6572206163636f756e7469546f6b656e3a20696e616465717561746520616c6c6f77616e636520616d6f756e742066726f6d206d73672e73656e646572206163636f756e74a165627a7a72305820dba43ef3c9e0299e2a2cc251dd6fd309ffe464337e827db99559d64b7e397fdd0029",
  "source": "/* LOCK COMPILER VERSION */\npragma solidity ^0.5.8;\n\ncontract iToken {\n/* PRIVATE MODIFIER DOES NOT MAKE VARIABLE INVISIBLE */\n  string private _tokenName;\n  string private _tokenSymbol;\n  uint8 private _tokenDecimals;\n  uint256 private _tokenSupply;\n\n  event Transfer(address indexed from, address indexed to, uint value);            // RECORDS: # of Tokens Transferred from Account A to Account B\n  event Approval(address indexed owner, address indexed spender, uint256 value);   // RECORDS: # of Tokens Approved by Account A for Account B to use\n\n/* PRIVATE MODIFIER DOES NOT MAKE MAPPING VARIABLE INVISIBLE */\n  mapping(address => uint256) private _balance;                                 // TRACKS: Account A~? => w/ # of Tokens owned\n  mapping(address => mapping (address => uint256)) private _allowance;          // TRACKS: Account A~? => approving Account B~? => w/ # of Tokens specified\n\n  constructor(string memory name, string memory symbol, uint8 decimals, uint256 initSupply) public {\n    _tokenName = name;\n    _tokenSymbol = symbol;\n    _tokenDecimals = decimals;\n    _balance[msg.sender] = initSupply;                                         // initSupply = # specified in 2_deploy_contracts.js\n    _tokenSupply = initSupply;\n  }\n\n  function tokenName() public view returns (string memory) {                    // Returns token name\n    return _tokenName;\n  }\n\n  function tokenSymbol() public view returns (string memory) {                  // Returns token symbol\n    return _tokenSymbol;\n  }\n\n  function tokenDecimals() public view returns (uint8) {                        // Returns token decimals\n    return _tokenDecimals;\n  }\n\n  function totalSupply() public view returns (uint256) {                        // Returns total number of iTokens\n    return _tokenSupply;\n  }\n\n  function balanceOf(address account) public view returns (uint256) {           // Returns balance of account ? address\n    return _balance[account];\n  }\n\n  function allowance(address owner, address spender) public view returns (uint256) {    // Returns remaining allowance from the owner account for the spender account to use\n    return _allowance[owner][spender];\n  }\n\n  function transfer(address recipient, uint256 amount) public returns (bool success) {    // If successful, transfers ? number of tokens from msg.sender to recipient address\n    _transfer(msg.sender, recipient, amount);\n    return true;\n  }\n/* THE APPROVE FUNCTION OF ERC-20 MIGHT LEAD TO VULNERABILITIES */\n  function approve(address spender, uint256 value) public returns (bool success) {    // If successful, approves allowance of ? number of tokens from msg.sender to/for spender address to use\n    _approve(msg.sender, spender, value);\n    return true;\n  }\n\n  function transferFrom(address owner, address recipient, uint256 amount) public returns (bool success) {               // If successful, transfers ? number of approved allowance tokens from msg.sender to/for recipient address to use\n    require(_allowance[owner][msg.sender] <= amount, \"iToken: inadequate allowance amount from msg.sender account\");    // CHECKS: Account msg.sender has enough _allowance Tokens from Account owner to Transfer\n    _transfer(owner, recipient, amount);\n    _approve(owner, recipient, _allowance[owner][msg.sender] -= amount);\n    return true;\n  }\n\n\n  function _transfer(address _sender, address _recipient, uint256 _amount) internal {\n    require(_balance[_sender] >= _amount, \"iToken: inadequate amount for transfer from sender account\");    // CHECKS: Account _sender has enough tokens specified to transfer\n/* USE SAFEMATH TO AVOID OVERFLOW/UNDERFLOW */\n    _balance[_sender] -= _amount;\n    _balance[_recipient] += _amount;\n    emit Transfer(_sender, _recipient, _amount);\n  }\n\n  function _approve(address _owner, address _spender, uint256 _value) internal {\n    require(_balance[_owner] >= _value, \"iToken: inadequate amount for approval from owner account\");   // CHECKS: Account _owner has enough tokens specified to approve allowance\n    _allowance[_owner][_spender] = _value;\n    emit Approval(_owner, _spender, _value);\n  }\n\n  function _mint(address _account, uint256 _amount) internal {\n/* USE SAFEMATH TO AVOID OVERFLOW/UNDERFLOW */\n    _tokenSupply += _amount;\n    _balance[_account] += _amount;\n    emit Transfer(address(0), _account, _amount);\n  }\n}\n",
  "sourcePath": "/Users/Jenner_Higgins/Developer/ICRAFT/Crowdsale/contracts/iToken.sol",
  "compiler": {
    "name": "solc",
    "version": "0.5.8+commit.23d335f2.Emscripten.clang"
  },
  "schemaVersion": "3.0.11",
  "updatedAt": "2019-07-30T03:20:27.738Z",
  "devdoc": {
    "methods": {}
  },
  "userdoc": {
    "methods": {}
  }
}